S015000074727366666963206C696768742E73726563E6
S11300000C942A000C9434000C9434000C943400A6
S11300100C9434000C9434000C9434000C9434008C
S11300200C9434000C9434000C9434000C9434007C
S11300300C9434000C9434000C9434000C9434006C
S11300400C9434000C9434000C9434000C9434005C
S11300500C94340011241FBECFE5D8E0DEBFCDBF21
S11300600E9436000C9444010C9400008FEF8ABB6C
S113007087BB84E08BBBFFE6F8BB2FE33DE043E0A6
S1130080215030404040E1F700C00000EFE7E8BBFA
S11300905FE36DE073E0515060407040E1F700C0F1
S11300A0000077E078BB8FE39DE0A3E081509040AF
S11300B0A040E1F700C000006DE768BBBFE3CDE0FE
S11300C023E0B150C0402040E1F700C000005DE6ED
S11300D058BB3FE34DE083E0315040408040E1F7BE
S11300E000C0000046E648BB9FE3ADE0B3E091509A
S11300F0A040B040E1F700C000003FE438BBCFE3CC
S11301002DE083E0C15020408040E1F700C00000B2
S11301102BE528BB9FE3ADE0B3E09150A040B04095
S1130120E1F700C0000096E098BBCFE38DE0A3E0C8
S1130130C1508040A040E1F700C000008FE388BBBD
S1130140BFE3CDE0A3E0B150C040A040E1F700C060
S11301500000A2E0ABBB48BBBFE3CDE0A3E0B150DD
S1130160C040A040E1F700C0000038BBBFE3CDE0D1
S1130170A3E0B150C040A040E1F700C0000028BB9C
S1130180BFE3CDE0A3E0B150C040A040E1F700C020
S1130190000098BBBFE3CDE0A3E0B150C040A04055
S11301A0E1F700C0000088BBBFE3CDE0A3E0B1509D
S11301B0C040A040E1F700C00000A1E0ABBBF8BB29
S11301C0BFE3CDE0F3E0B150C040F040E1F700C040
S11301D00000E8BBAFE3BDE0C3E0A150B040C040C5
S11301E0E1F700C0000078BBEFE3FDE073E0E1500D
S11301F0F0407040E1F700C0000068BBAFE3BDE031
S1130200C3E0A150B040C040E1F700C0000058BBBB
S1130210EFE3FDE053E0E150F0405040E1F700C06F
S1130220000048BB6FE37DE0A3E061507040A04054
S1130230E1F700C0000038BBBFE3CDE0E3E0B1501C
S1130240C040E040E1F700C0000028BBFFE32DE020
S113025033E0F15020403040E1F700C0000098BB8B
S11302604FE35DE063E0415050406040E1F700C07F
S1130270000088BB7FE38DE093E0715080409040A4
S10F0280E1F700C00000F5CEF894FFCFB9
S9030000FC
